{
  "contractName": "LandRegistrationContract",
  "abi": [
    {
      "inputs": [
        {
          "internalType": "uint256",
          "name": "_CNIC",
          "type": "uint256"
        },
        {
          "internalType": "string",
          "name": "_name",
          "type": "string"
        },
        {
          "internalType": "string",
          "name": "_district",
          "type": "string"
        }
      ],
      "stateMutability": "nonpayable",
      "type": "constructor"
    },
    {
      "inputs": [
        {
          "internalType": "address",
          "name": "",
          "type": "address"
        },
        {
          "internalType": "uint256",
          "name": "",
          "type": "uint256"
        }
      ],
      "name": "assets",
      "outputs": [
        {
          "internalType": "uint256",
          "name": "",
          "type": "uint256"
        }
      ],
      "stateMutability": "view",
      "type": "function",
      "constant": true
    },
    {
      "inputs": [
        {
          "internalType": "uint256",
          "name": "",
          "type": "uint256"
        }
      ],
      "name": "propOwnerChange",
      "outputs": [
        {
          "internalType": "address",
          "name": "",
          "type": "address"
        }
      ],
      "stateMutability": "view",
      "type": "function",
      "constant": true
    },
    {
      "inputs": [
        {
          "internalType": "uint256",
          "name": "",
          "type": "uint256"
        }
      ],
      "name": "properties",
      "outputs": [
        {
          "internalType": "uint256",
          "name": "id",
          "type": "uint256"
        },
        {
          "internalType": "address",
          "name": "currentOwner",
          "type": "address"
        },
        {
          "internalType": "uint256",
          "name": "price",
          "type": "uint256"
        },
        {
          "internalType": "string",
          "name": "district",
          "type": "string"
        },
        {
          "internalType": "string",
          "name": "latitude",
          "type": "string"
        },
        {
          "internalType": "string",
          "name": "longitude",
          "type": "string"
        },
        {
          "internalType": "bool",
          "name": "forSale",
          "type": "bool"
        },
        {
          "internalType": "enum LandRegistrationContract.PropertyVerfication",
          "name": "verification",
          "type": "uint8"
        }
      ],
      "stateMutability": "view",
      "type": "function",
      "constant": true
    },
    {
      "inputs": [
        {
          "internalType": "address",
          "name": "",
          "type": "address"
        }
      ],
      "name": "users",
      "outputs": [
        {
          "internalType": "uint256",
          "name": "id",
          "type": "uint256"
        },
        {
          "internalType": "string",
          "name": "name",
          "type": "string"
        },
        {
          "internalType": "string",
          "name": "district",
          "type": "string"
        },
        {
          "internalType": "enum LandRegistrationContract.UserVerfication",
          "name": "verification",
          "type": "uint8"
        },
        {
          "internalType": "enum LandRegistrationContract.UserType",
          "name": "userType",
          "type": "uint8"
        },
        {
          "internalType": "uint256",
          "name": "totalAssests",
          "type": "uint256"
        }
      ],
      "stateMutability": "view",
      "type": "function",
      "constant": true
    },
    {
      "inputs": [
        {
          "internalType": "uint256",
          "name": "",
          "type": "uint256"
        }
      ],
      "name": "verifiedUsers",
      "outputs": [
        {
          "internalType": "bool",
          "name": "",
          "type": "bool"
        }
      ],
      "stateMutability": "view",
      "type": "function",
      "constant": true
    },
    {
      "stateMutability": "payable",
      "type": "receive",
      "payable": true
    },
    {
      "inputs": [
        {
          "internalType": "address",
          "name": "_newUser",
          "type": "address"
        },
        {
          "internalType": "uint256",
          "name": "_CNIC",
          "type": "uint256"
        },
        {
          "internalType": "string",
          "name": "_name",
          "type": "string"
        },
        {
          "internalType": "string",
          "name": "_district",
          "type": "string"
        }
      ],
      "name": "addNewUser",
      "outputs": [
        {
          "internalType": "bool",
          "name": "Successful",
          "type": "bool"
        }
      ],
      "stateMutability": "nonpayable",
      "type": "function"
    },
    {
      "inputs": [
        {
          "internalType": "address",
          "name": "_newUser",
          "type": "address"
        },
        {
          "internalType": "uint256",
          "name": "_CNIC",
          "type": "uint256"
        },
        {
          "internalType": "string",
          "name": "_name",
          "type": "string"
        },
        {
          "internalType": "string",
          "name": "_district",
          "type": "string"
        }
      ],
      "name": "addNewRegistrar",
      "outputs": [
        {
          "internalType": "bool",
          "name": "Successful",
          "type": "bool"
        }
      ],
      "stateMutability": "nonpayable",
      "type": "function"
    },
    {
      "inputs": [
        {
          "internalType": "address",
          "name": "_newUser",
          "type": "address"
        },
        {
          "internalType": "uint256",
          "name": "_CNIC",
          "type": "uint256"
        },
        {
          "internalType": "string",
          "name": "_name",
          "type": "string"
        },
        {
          "internalType": "string",
          "name": "_district",
          "type": "string"
        }
      ],
      "name": "addNewAdmin",
      "outputs": [
        {
          "internalType": "bool",
          "name": "Successful",
          "type": "bool"
        }
      ],
      "stateMutability": "nonpayable",
      "type": "function"
    },
    {
      "inputs": [
        {
          "internalType": "address",
          "name": "_verifiedUser",
          "type": "address"
        }
      ],
      "name": "approveUserAccept",
      "outputs": [],
      "stateMutability": "nonpayable",
      "type": "function"
    },
    {
      "inputs": [
        {
          "internalType": "address",
          "name": "_rejectedUser",
          "type": "address"
        }
      ],
      "name": "approveUserReject",
      "outputs": [],
      "stateMutability": "nonpayable",
      "type": "function"
    },
    {
      "inputs": [
        {
          "internalType": "address payable",
          "name": "_owner",
          "type": "address"
        },
        {
          "internalType": "uint256",
          "name": "_price",
          "type": "uint256"
        },
        {
          "internalType": "string",
          "name": "_district",
          "type": "string"
        },
        {
          "internalType": "string",
          "name": "_latitude",
          "type": "string"
        },
        {
          "internalType": "string",
          "name": "_longitude",
          "type": "string"
        }
      ],
      "name": "createProperty",
      "outputs": [
        {
          "internalType": "bool",
          "name": "Successful",
          "type": "bool"
        }
      ],
      "stateMutability": "nonpayable",
      "type": "function"
    },
    {
      "inputs": [
        {
          "internalType": "uint256",
          "name": "_propId",
          "type": "uint256"
        }
      ],
      "name": "approveProperty",
      "outputs": [
        {
          "internalType": "bool",
          "name": "Successful",
          "type": "bool"
        }
      ],
      "stateMutability": "nonpayable",
      "type": "function"
    },
    {
      "inputs": [
        {
          "internalType": "uint256",
          "name": "_propId",
          "type": "uint256"
        }
      ],
      "name": "rejectProperty",
      "outputs": [
        {
          "internalType": "bool",
          "name": "Successful",
          "type": "bool"
        }
      ],
      "stateMutability": "nonpayable",
      "type": "function"
    },
    {
      "inputs": [
        {
          "internalType": "uint256",
          "name": "_propId",
          "type": "uint256"
        },
        {
          "internalType": "uint256",
          "name": "_newValue",
          "type": "uint256"
        }
      ],
      "name": "changePrice",
      "outputs": [
        {
          "internalType": "bool",
          "name": "Successful",
          "type": "bool"
        }
      ],
      "stateMutability": "nonpayable",
      "type": "function"
    },
    {
      "inputs": [
        {
          "internalType": "uint256",
          "name": "_propId",
          "type": "uint256"
        }
      ],
      "name": "sellProperty",
      "outputs": [
        {
          "internalType": "bool",
          "name": "Successful",
          "type": "bool"
        }
      ],
      "stateMutability": "nonpayable",
      "type": "function"
    },
    {
      "inputs": [
        {
          "internalType": "uint256",
          "name": "_propId",
          "type": "uint256"
        }
      ],
      "name": "NotForSale",
      "outputs": [
        {
          "internalType": "bool",
          "name": "Successful",
          "type": "bool"
        }
      ],
      "stateMutability": "nonpayable",
      "type": "function"
    },
    {
      "inputs": [
        {
          "internalType": "uint256",
          "name": "_propId",
          "type": "uint256"
        },
        {
          "internalType": "address payable",
          "name": "_newOwner",
          "type": "address"
        }
      ],
      "name": "requestPurchase",
      "outputs": [
        {
          "internalType": "bool",
          "name": "Successful",
          "type": "bool"
        }
      ],
      "stateMutability": "nonpayable",
      "type": "function"
    },
    {
      "inputs": [
        {
          "internalType": "uint256",
          "name": "_propId",
          "type": "uint256"
        }
      ],
      "name": "approvePurchase",
      "outputs": [
        {
          "internalType": "bool",
          "name": "Successful",
          "type": "bool"
        }
      ],
      "stateMutability": "nonpayable",
      "type": "function"
    },
    {
      "inputs": [
        {
          "internalType": "uint256",
          "name": "_propId",
          "type": "uint256"
        }
      ],
      "name": "rejectPurchase",
      "outputs": [
        {
          "internalType": "bool",
          "name": "Successful",
          "type": "bool"
        }
      ],
      "stateMutability": "nonpayable",
      "type": "function"
    }
  ],
  "bytecode": "0x60806040523480156200001157600080fd5b5060405162005f6938038062005f69833981810160405260608110156200003757600080fd5b8101908080519060200190929190805160405193929190846401000000008211156200006257600080fd5b838201915060208201858111156200007957600080fd5b82518660018202830111640100000000821117156200009757600080fd5b8083526020830192505050908051906020019080838360005b83811015620000cd578082015181840152602081019050620000b0565b50505050905090810190601f168015620000fb5780820380516001836020036101000a031916815260200191505b50604052602001805160405193929190846401000000008211156200011f57600080fd5b838201915060208201858111156200013657600080fd5b82518660018202830111640100000000821117156200015457600080fd5b8083526020830192505050908051906020019080838360005b838110156200018a5780820151818401526020810190506200016d565b50505050905090810190601f168015620001b85780820380516001836020036101000a031916815260200191505b50604052505050336000806101000a81548173ffffffffffffffffffffffffffffffffffffffff021916908373ffffffffffffffffffffffffffffffffffffffff16021790555062000209620003ad565b838160000181815250508281602001819052508181604001819052506002816060019060038111156200023857fe5b908160038111156200024657fe5b815250506004816080019060048111156200025d57fe5b908160048111156200026b57fe5b8152505060008160a001818152505080600260008060009054906101000a900473ffffffffffffffffffffffffffffffffffffffff1673ffffffffffffffffffffffffffffffffffffffff1673ffffffffffffffffffffffffffffffffffffffff1681526020019081526020016000206000820151816000015560208201518160010190805190602001906200030392919062000402565b5060408201518160020190805190602001906200032292919062000402565b5060608201518160030160006101000a81548160ff021916908360038111156200034857fe5b021790555060808201518160030160016101000a81548160ff021916908360048111156200037257fe5b021790555060a0820151816004015560c08201518160050190805190602001906200039f92919062000489565b5090505050505050620004fa565b6040518060e0016040528060008152602001606081526020016060815260200160006003811115620003db57fe5b815260200160006004811115620003ee57fe5b815260200160008152602001606081525090565b828054600181600116156101000203166002900490600052602060002090601f016020900481019282601f106200044557805160ff191683800117855562000476565b8280016001018555821562000476579182015b828111156200047557825182559160200191906001019062000458565b5b509050620004859190620004db565b5090565b828054828255906000526020600020908101928215620004c8579160200282015b82811115620004c7578251825591602001919060010190620004aa565b5b509050620004d79190620004db565b5090565b5b80821115620004f6576000816000905550600101620004dc565b5090565b615a5f806200050a6000396000f3fe6080604052600436106101185760003560e01c80639c4ea46a116100a0578063c9265ad611610064578063c9265ad6146109a1578063cb5f921014610bd7578063e3480ab714610c28578063e9b66f8c14610dc7578063f7b1080814610e185761011f565b80639c4ea46a14610589578063a87430ba146105ee578063b37b53f714610756578063b3de019c146107a7578063c3b75fdf146108025761011f565b80633b5342c3116100e75780633b5342c31461028857806351eb27c0146102d9578063648ae993146103485780636bbaaa9314610399578063971b3325146105385761011f565b8063053cef8b1461012457806307763ec314610195578063094157fa146101e657806327983fcf146102375761011f565b3661011f57005b600080fd5b34801561013057600080fd5b5061017d6004803603604081101561014757600080fd5b8101908080359060200190929190803573ffffffffffffffffffffffffffffffffffffffff169060200190929190505050610fea565b60405180821515815260200191505060405180910390f35b3480156101a157600080fd5b506101ce600480360360208110156101b857600080fd5b810190808035906020019092919050505061143e565b60405180821515815260200191505060405180910390f35b3480156101f257600080fd5b5061021f6004803603602081101561020957600080fd5b810190808035906020019092919050505061145e565b60405180821515815260200191505060405180910390f35b34801561024357600080fd5b506102706004803603602081101561025a57600080fd5b8101908080359060200190929190505050611874565b60405180821515815260200191505060405180910390f35b34801561029457600080fd5b506102c1600480360360208110156102ab57600080fd5b8101908080359060200190929190505050611fa8565b60405180821515815260200191505060405180910390f35b3480156102e557600080fd5b50610332600480360360408110156102fc57600080fd5b81019080803573ffffffffffffffffffffffffffffffffffffffff16906020019092919080359060200190929190505050612507565b6040518082815260200191505060405180910390f35b34801561035457600080fd5b506103976004803603602081101561036b57600080fd5b81019080803573ffffffffffffffffffffffffffffffffffffffff169060200190929190505050612535565b005b3480156103a557600080fd5b50610520600480360360808110156103bc57600080fd5b81019080803573ffffffffffffffffffffffffffffffffffffffff169060200190929190803590602001909291908035906020019064010000000081111561040357600080fd5b82018360208201111561041557600080fd5b8035906020019184600183028401116401000000008311171561043757600080fd5b91908080601f016020809104026020016040519081016040528093929190818152602001838380828437600081840152601f19601f8201169050808301925050505050505091929192908035906020019064010000000081111561049a57600080fd5b8201836020820111156104ac57600080fd5b803590602001918460018302840111640100000000831117156104ce57600080fd5b91908080601f016020809104026020016040519081016040528093929190818152602001838380828437600081840152601f19601f820116905080830192505050505050509192919290505050612bac565b60405180821515815260200191505060405180910390f35b34801561054457600080fd5b506105876004803603602081101561055b57600080fd5b81019080803573ffffffffffffffffffffffffffffffffffffffff1690602001909291905050506130c3565b005b34801561059557600080fd5b506105c2600480360360208110156105ac57600080fd5b8101908080359060200190929190505050613630565b604051808273ffffffffffffffffffffffffffffffffffffffff16815260200191505060405180910390f35b3480156105fa57600080fd5b5061063d6004803603602081101561061157600080fd5b81019080803573ffffffffffffffffffffffffffffffffffffffff169060200190929190505050613663565b60405180878152602001806020018060200186600381111561065b57fe5b815260200185600481111561066c57fe5b8152602001848152602001838103835288818151815260200191508051906020019080838360005b838110156106af578082015181840152602081019050610694565b50505050905090810190601f1680156106dc5780820380516001836020036101000a031916815260200191505b50838103825287818151815260200191508051906020019080838360005b838110156107155780820151818401526020810190506106fa565b50505050905090810190601f1680156107425780820380516001836020036101000a031916815260200191505b509850505050505050505060405180910390f35b34801561076257600080fd5b5061078f6004803603602081101561077957600080fd5b81019080803590602001909291905050506137e9565b60405180821515815260200191505060405180910390f35b3480156107b357600080fd5b506107ea600480360360408110156107ca57600080fd5b810190808035906020019092919080359060200190929190505050613e01565b60405180821515815260200191505060405180910390f35b34801561080e57600080fd5b506109896004803603608081101561082557600080fd5b81019080803573ffffffffffffffffffffffffffffffffffffffff169060200190929190803590602001909291908035906020019064010000000081111561086c57600080fd5b82018360208201111561087e57600080fd5b803590602001918460018302840111640100000000831117156108a057600080fd5b91908080601f016020809104026020016040519081016040528093929190818152602001838380828437600081840152601f19601f8201169050808301925050505050505091929192908035906020019064010000000081111561090357600080fd5b82018360208201111561091557600080fd5b8035906020019184600183028401116401000000008311171561093757600080fd5b91908080601f016020809104026020016040519081016040528093929190818152602001838380828437600081840152601f19601f820116905080830192505050505050509192919290505050614056565b60405180821515815260200191505060405180910390f35b3480156109ad57600080fd5b50610bbf600480360360a08110156109c457600080fd5b81019080803573ffffffffffffffffffffffffffffffffffffffff1690602001909291908035906020019092919080359060200190640100000000811115610a0b57600080fd5b820183602082011115610a1d57600080fd5b80359060200191846001830284011164010000000083111715610a3f57600080fd5b91908080601f016020809104026020016040519081016040528093929190818152602001838380828437600081840152601f19601f82011690508083019250505050505050919291929080359060200190640100000000811115610aa257600080fd5b820183602082011115610ab457600080fd5b80359060200191846001830284011164010000000083111715610ad657600080fd5b91908080601f016020809104026020016040519081016040528093929190818152602001838380828437600081840152601f19601f82011690508083019250505050505050919291929080359060200190640100000000811115610b3957600080fd5b820183602082011115610b4b57600080fd5b80359060200191846001830284011164010000000083111715610b6d57600080fd5b91908080601f016020809104026020016040519081016040528093929190818152602001838380828437600081840152601f19601f82011690508083019250505050505050919291929050505061456d565b60405180821515815260200191505060405180910390f35b348015610be357600080fd5b50610c1060048036036020811015610bfa57600080fd5b81019080803590602001909291905050506149f2565b60405180821515815260200191505060405180910390f35b348015610c3457600080fd5b50610daf60048036036080811015610c4b57600080fd5b81019080803573ffffffffffffffffffffffffffffffffffffffff1690602001909291908035906020019092919080359060200190640100000000811115610c9257600080fd5b820183602082011115610ca457600080fd5b80359060200191846001830284011164010000000083111715610cc657600080fd5b91908080601f016020809104026020016040519081016040528093929190818152602001838380828437600081840152601f19601f82011690508083019250505050505050919291929080359060200190640100000000811115610d2957600080fd5b820183602082011115610d3b57600080fd5b80359060200191846001830284011164010000000083111715610d5d57600080fd5b91908080601f016020809104026020016040519081016040528093929190818152602001838380828437600081840152601f19601f820116905080830192505050505050509192919290505050614b83565b60405180821515815260200191505060405180910390f35b348015610dd357600080fd5b50610e0060048036036020811015610dea57600080fd5b8101908080359060200190929190505050614e53565b60405180821515815260200191505060405180910390f35b348015610e2457600080fd5b50610e5160048036036020811015610e3b57600080fd5b81019080803590602001909291905050506153ab565b604051808981526020018873ffffffffffffffffffffffffffffffffffffffff1681526020018781526020018060200180602001806020018615158152602001856003811115610e9d57fe5b8152602001848103845289818151815260200191508051906020019080838360005b83811015610eda578082015181840152602081019050610ebf565b50505050905090810190601f168015610f075780820380516001836020036101000a031916815260200191505b50848103835288818151815260200191508051906020019080838360005b83811015610f40578082015181840152602081019050610f25565b50505050905090810190601f168015610f6d5780820380516001836020036101000a031916815260200191505b50848103825287818151815260200191508051906020019080838360005b83811015610fa6578082015181840152602081019050610f8b565b50505050905090810190601f168015610fd35780820380516001836020036101000a031916815260200191505b509b50505050505050505050505060405180910390f35b60006001151560036000600260003373ffffffffffffffffffffffffffffffffffffffff1673ffffffffffffffffffffffffffffffffffffffff16815260200190815260200160002060000154815260200190815260200160002060009054906101000a900460ff161515146110c8576040517f08c379a00000000000000000000000000000000000000000000000000000000081526004018080602001828103825260138152602001807f4e6f74206120766572696669656420557365720000000000000000000000000081525060200191505060405180910390fd5b600260038111156110d557fe5b600260003373ffffffffffffffffffffffffffffffffffffffff1673ffffffffffffffffffffffffffffffffffffffff16815260200190815260200160002060030160009054906101000a900460ff16600381111561113057fe5b146111a3576040517f08c379a00000000000000000000000000000000000000000000000000000000081526004018080602001828103825260118152602001807f4e6f74205665726966696564205573657200000000000000000000000000000081525060200191505060405180910390fd5b600115156004600085815260200190815260200160002060060160009054906101000a900460ff16151514611240576040517f08c379a00000000000000000000000000000000000000000000000000000000081526004018080602001828103825260158152602001807f50726f7065727479204e6f7420466f722053616c65000000000000000000000081525060200191505060405180910390fd5b8173ffffffffffffffffffffffffffffffffffffffff166004600085815260200190815260200160002060010160009054906101000a900473ffffffffffffffffffffffffffffffffffffffff1673ffffffffffffffffffffffffffffffffffffffff1614156112fb576040517f08c379a00000000000000000000000000000000000000000000000000000000081526004018080602001828103825260298152602001806159d96029913960400191505060405180910390fd5b600073ffffffffffffffffffffffffffffffffffffffff166005600085815260200190815260200160002060009054906101000a900473ffffffffffffffffffffffffffffffffffffffff1673ffffffffffffffffffffffffffffffffffffffff16146113b3576040517f08c379a00000000000000000000000000000000000000000000000000000000081526004018080602001828103825260258152602001806159b46025913960400191505060405180910390fd5b816005600085815260200190815260200160002060006101000a81548173ffffffffffffffffffffffffffffffffffffffff021916908373ffffffffffffffffffffffffffffffffffffffff16021790555060006004600085815260200190815260200160002060060160006101000a81548160ff0219169083151502179055506001905092915050565b60036020528060005260406000206000915054906101000a900460ff1681565b60006001151560036000600260003373ffffffffffffffffffffffffffffffffffffffff1673ffffffffffffffffffffffffffffffffffffffff16815260200190815260200160002060000154815260200190815260200160002060009054906101000a900460ff1615151461153c576040517f08c379a00000000000000000000000000000000000000000000000000000000081526004018080602001828103825260138152602001807f4e6f74206120766572696669656420557365720000000000000000000000000081525060200191505060405180910390fd5b6002600381111561154957fe5b600260003373ffffffffffffffffffffffffffffffffffffffff1673ffffffffffffffffffffffffffffffffffffffff16815260200190815260200160002060030160009054906101000a900460ff1660038111156115a457fe5b14611617576040517f08c379a00000000000000000000000000000000000000000000000000000000081526004018080602001828103825260118152602001807f4e6f74205665726966696564205573657200000000000000000000000000000081525060200191505060405180910390fd5b816002600381111561162557fe5b6004600083815260200190815260200160002060060160019054906101000a900460ff16600381111561165457fe5b146116c7576040517f08c379a00000000000000000000000000000000000000000000000000000000081526004018080602001828103825260178152602001807f4e6f7420612076657269666965642050726f706572747900000000000000000081525060200191505060405180910390fd5b600015156004600085815260200190815260200160002060060160009054906101000a900460ff16151514611764576040517f08c379a00000000000000000000000000000000000000000000000000000000081526004018080602001828103825260198152602001807f50726f706572747920416c726561647920466f722053616c650000000000000081525060200191505060405180910390fd5b3373ffffffffffffffffffffffffffffffffffffffff166004600085815260200190815260200160002060010160009054906101000a900473ffffffffffffffffffffffffffffffffffffffff1673ffffffffffffffffffffffffffffffffffffffff161461183b576040517f08c379a00000000000000000000000000000000000000000000000000000000081526004018080602001828103825260138152602001807f4f6e6c79204f776e65722043616e2053656c6c0000000000000000000000000081525060200191505060405180910390fd5b60016004600085815260200190815260200160002060060160006101000a81548160ff0219169083151502179055506001915050919050565b60006003600481111561188357fe5b600260003373ffffffffffffffffffffffffffffffffffffffff1673ffffffffffffffffffffffffffffffffffffffff16815260200190815260200160002060030160019054906101000a900460ff1660048111156118de57fe5b148061194e57506004808111156118f157fe5b600260003373ffffffffffffffffffffffffffffffffffffffff1673ffffffffffffffffffffffffffffffffffffffff16815260200190815260200160002060030160019054906101000a900460ff16600481111561194c57fe5b145b6119c0576040517f08c379a00000000000000000000000000000000000000000000000000000000081526004018080602001828103825260098152602001807f4e6f742041646d696e000000000000000000000000000000000000000000000081525060200191505060405180910390fd5b600460008381526020019081526020016000206003018054600181600116156101000203166002900480601f016020809104026020016040519081016040528092919081815260200182805460018160011615610100020316600290048015611a6a5780601f10611a3f57610100808354040283529160200191611a6a565b820191906000526020600020905b815481529060010190602001808311611a4d57829003601f168201915b50505050508080519060200120600260003373ffffffffffffffffffffffffffffffffffffffff1673ffffffffffffffffffffffffffffffffffffffff1681526020019081526020016000206002016040518082805460018160011615610100020316600290048015611b145780601f10611af2576101008083540402835291820191611b14565b820191906000526020600020905b815481529060010190602001808311611b00575b505091505060405180910390201480611b915750600480811115611b3457fe5b600260003373ffffffffffffffffffffffffffffffffffffffff1673ffffffffffffffffffffffffffffffffffffffff16815260200190815260200160002060030160019054906101000a900460ff166004811115611b8f57fe5b145b611c03576040517f08c379a00000000000000000000000000000000000000000000000000000000081526004018080602001828103825260118152602001807f4e6f742053616d6520446973747269637400000000000000000000000000000081525060200191505060405180910390fd5b60016003811115611c1057fe5b6004600085815260200190815260200160002060060160019054906101000a900460ff166003811115611c3f57fe5b14611cb2576040517f08c379a000000000000000000000000000000000000000000000000000000000815260040180806020018281038252601a8152602001807f566572696669636174696f6e204e6f742052657175657374656400000000000081525060200191505060405180910390fd5b3373ffffffffffffffffffffffffffffffffffffffff166004600085815260200190815260200160002060010160009054906101000a900473ffffffffffffffffffffffffffffffffffffffff1673ffffffffffffffffffffffffffffffffffffffff161415611d8a576040517f08c379a00000000000000000000000000000000000000000000000000000000081526004018080602001828103825260138152602001807f4f776e65722043616e6e6f742052656a6563740000000000000000000000000081525060200191505060405180910390fd5b60405180610100016040528060008152602001600073ffffffffffffffffffffffffffffffffffffffff168152602001600081526020016040518060400160405280600181526020017f300000000000000000000000000000000000000000000000000000000000000081525081526020016040518060400160405280600181526020017f300000000000000000000000000000000000000000000000000000000000000081525081526020016040518060400160405280600181526020017f3000000000000000000000000000000000000000000000000000000000000000815250815260200160001515815260200160006003811115611e8857fe5b8152506004600060015481526020019081526020016000206000820151816000015560208201518160010160006101000a81548173ffffffffffffffffffffffffffffffffffffffff021916908373ffffffffffffffffffffffffffffffffffffffff160217905550604082015181600201556060820151816003019080519060200190611f179291906158a0565b506080820151816004019080519060200190611f349291906158a0565b5060a0820151816005019080519060200190611f519291906158a0565b5060c08201518160060160006101000a81548160ff02191690831515021790555060e08201518160060160016101000a81548160ff02191690836003811115611f9657fe5b02179055509050506001915050919050565b600060036004811115611fb757fe5b600260003373ffffffffffffffffffffffffffffffffffffffff1673ffffffffffffffffffffffffffffffffffffffff16815260200190815260200160002060030160019054906101000a900460ff16600481111561201257fe5b1480612082575060048081111561202557fe5b600260003373ffffffffffffffffffffffffffffffffffffffff1673ffffffffffffffffffffffffffffffffffffffff16815260200190815260200160002060030160019054906101000a900460ff16600481111561208057fe5b145b6120f4576040517f08c379a00000000000000000000000000000000000000000000000000000000081526004018080602001828103825260098152602001807f4e6f742041646d696e000000000000000000000000000000000000000000000081525060200191505060405180910390fd5b600460008381526020019081526020016000206003018054600181600116156101000203166002900480601f01602080910402602001604051908101604052809291908181526020018280546001816001161561010002031660029004801561219e5780601f106121735761010080835404028352916020019161219e565b820191906000526020600020905b81548152906001019060200180831161218157829003601f168201915b50505050508080519060200120600260003373ffffffffffffffffffffffffffffffffffffffff1673ffffffffffffffffffffffffffffffffffffffff16815260200190815260200160002060020160405180828054600181600116156101000203166002900480156122485780601f10612226576101008083540402835291820191612248565b820191906000526020600020905b815481529060010190602001808311612234575b5050915050604051809103902014806122c5575060048081111561226857fe5b600260003373ffffffffffffffffffffffffffffffffffffffff1673ffffffffffffffffffffffffffffffffffffffff16815260200190815260200160002060030160019054906101000a900460ff1660048111156122c357fe5b145b612337576040517f08c379a00000000000000000000000000000000000000000000000000000000081526004018080602001828103825260118152602001807f4e6f742053616d6520446973747269637400000000000000000000000000000081525060200191505060405180910390fd5b600015156004600085815260200190815260200160002060060160009054906101000a900460ff161515146123d4576040517f08c379a00000000000000000000000000000000000000000000000000000000081526004018080602001828103825260158152602001807f50726f7065727479204e6f7420466f722053616c65000000000000000000000081525060200191505060405180910390fd5b600073ffffffffffffffffffffffffffffffffffffffff166005600085815260200190815260200160002060009054906101000a900473ffffffffffffffffffffffffffffffffffffffff1673ffffffffffffffffffffffffffffffffffffffff1614156124aa576040517f08c379a00000000000000000000000000000000000000000000000000000000081526004018080602001828103825260198152602001807f50726f70657274792052656a656374656420416c72656164790000000000000081525060200191505060405180910390fd5b60006005600085815260200190815260200160002060006101000a81548173ffffffffffffffffffffffffffffffffffffffff021916908373ffffffffffffffffffffffffffffffffffffffff1602179055506001915050919050565b6006602052816000526040600020818154811061252057fe5b90600052602060002001600091509150505481565b6002600481111561254257fe5b600260003373ffffffffffffffffffffffffffffffffffffffff1673ffffffffffffffffffffffffffffffffffffffff16815260200190815260200160002060030160019054906101000a900460ff16600481111561259d57fe5b14612610576040517f08c379a000000000000000000000000000000000000000000000000000000000815260040180806020018281038252600f8152602001807f4e6f74206120526567697374726172000000000000000000000000000000000081525060200191505060405180910390fd5b600260008273ffffffffffffffffffffffffffffffffffffffff1673ffffffffffffffffffffffffffffffffffffffff1681526020019081526020016000206002018054600181600116156101000203166002900480601f0160208091040260200160405190810160405280929190818152602001828054600181600116156101000203166002900480156126e65780601f106126bb576101008083540402835291602001916126e6565b820191906000526020600020905b8154815290600101906020018083116126c957829003601f168201915b50505050508080519060200120600260003373ffffffffffffffffffffffffffffffffffffffff1673ffffffffffffffffffffffffffffffffffffffff16815260200190815260200160002060020160405180828054600181600116156101000203166002900480156127905780601f1061276e576101008083540402835291820191612790565b820191906000526020600020905b81548152906001019060200180831161277c575b50509150506040518091039020148061280d57506004808111156127b057fe5b600260003373ffffffffffffffffffffffffffffffffffffffff1673ffffffffffffffffffffffffffffffffffffffff16815260200190815260200160002060030160019054906101000a900460ff16600481111561280b57fe5b145b61287f576040517f08c379a00000000000000000000000000000000000000000000000000000000081526004018080602001828103825260118152602001807f4e6f742053616d6520446973747269637400000000000000000000000000000081525060200191505060405180910390fd5b6001600381111561288c57fe5b600260008473ffffffffffffffffffffffffffffffffffffffff1673ffffffffffffffffffffffffffffffffffffffff16815260200190815260200160002060030160009054906101000a900460ff1660038111156128e757fe5b1461295a576040517f08c379a000000000000000000000000000000000000000000000000000000000815260040180806020018281038252601a8152602001807f566572696669636174696f6e204e6f742052657175657374656400000000000081525060200191505060405180910390fd5b6000151560036000600260008673ffffffffffffffffffffffffffffffffffffffff1673ffffffffffffffffffffffffffffffffffffffff16815260200190815260200160002060000154815260200190815260200160002060009054906101000a900460ff161515146129cd57600080fd5b60606040518060e001604052806000815260200160405180602001604052806000815250815260200160405180602001604052806000815250815260200160006003811115612a1857fe5b815260200160006004811115612a2a57fe5b81526020016000815260200182815250600260008573ffffffffffffffffffffffffffffffffffffffff1673ffffffffffffffffffffffffffffffffffffffff168152602001908152602001600020600082015181600001556020820151816001019080519060200190612a9f9291906158a0565b506040820151816002019080519060200190612abc9291906158a0565b5060608201518160030160006101000a81548160ff02191690836003811115612ae157fe5b021790555060808201518160030160016101000a81548160ff02191690836004811115612b0a57fe5b021790555060a0820151816004015560c0820151816005019080519060200190612b35929190615920565b50905050600060036000600260008773ffffffffffffffffffffffffffffffffffffffff1673ffffffffffffffffffffffffffffffffffffffff16815260200190815260200160002060000154815260200190815260200160002060006101000a81548160ff021916908315150217905550505050565b600060036004811115612bbb57fe5b600260003373ffffffffffffffffffffffffffffffffffffffff1673ffffffffffffffffffffffffffffffffffffffff16815260200190815260200160002060030160019054906101000a900460ff166004811115612c1657fe5b1480612c865750600480811115612c2957fe5b600260003373ffffffffffffffffffffffffffffffffffffffff1673ffffffffffffffffffffffffffffffffffffffff16815260200190815260200160002060030160019054906101000a900460ff166004811115612c8457fe5b145b612cf8576040517f08c379a00000000000000000000000000000000000000000000000000000000081526004018080602001828103825260098152602001807f4e6f742041646d696e000000000000000000000000000000000000000000000081525060200191505060405180910390fd5b818080519060200120600260003373ffffffffffffffffffffffffffffffffffffffff1673ffffffffffffffffffffffffffffffffffffffff1681526020019081526020016000206002016040518082805460018160011615610100020316600290048015612d9e5780601f10612d7c576101008083540402835291820191612d9e565b820191906000526020600020905b815481529060010190602001808311612d8a575b505091505060405180910390201480612e1b5750600480811115612dbe57fe5b600260003373ffffffffffffffffffffffffffffffffffffffff1673ffffffffffffffffffffffffffffffffffffffff16815260200190815260200160002060030160019054906101000a900460ff166004811115612e1957fe5b145b612e8d576040517f08c379a00000000000000000000000000000000000000000000000000000000081526004018080602001828103825260118152602001807f4e6f742053616d6520446973747269637400000000000000000000000000000081525060200191505060405180910390fd5b60006004811115612e9a57fe5b600260008873ffffffffffffffffffffffffffffffffffffffff1673ffffffffffffffffffffffffffffffffffffffff16815260200190815260200160002060030160019054906101000a900460ff166004811115612ef557fe5b14612f68576040517f08c379a000000000000000000000000000000000000000000000000000000000815260040180806020018281038252600a8152602001807f557365722045786973740000000000000000000000000000000000000000000081525060200191505060405180910390fd5b60606040518060e0016040528087815260200186815260200185815260200160026003811115612f9457fe5b815260200160026004811115612fa657fe5b81526020016000815260200182815250600260008973ffffffffffffffffffffffffffffffffffffffff1673ffffffffffffffffffffffffffffffffffffffff16815260200190815260200160002060008201518160000155602082015181600101908051906020019061301b9291906158a0565b5060408201518160020190805190602001906130389291906158a0565b5060608201518160030160006101000a81548160ff0219169083600381111561305d57fe5b021790555060808201518160030160016101000a81548160ff0219169083600481111561308657fe5b021790555060a0820151816004015560c08201518160050190805190602001906130b1929190615920565b50905050600192505050949350505050565b600260048111156130d057fe5b600260003373ffffffffffffffffffffffffffffffffffffffff1673ffffffffffffffffffffffffffffffffffffffff16815260200190815260200160002060030160019054906101000a900460ff16600481111561312b57fe5b1461319e576040517f08c379a000000000000000000000000000000000000000000000000000000000815260040180806020018281038252600f8152602001807f4e6f74206120526567697374726172000000000000000000000000000000000081525060200191505060405180910390fd5b600260008273ffffffffffffffffffffffffffffffffffffffff1673ffffffffffffffffffffffffffffffffffffffff1681526020019081526020016000206002018054600181600116156101000203166002900480601f0160208091040260200160405190810160405280929190818152602001828054600181600116156101000203166002900480156132745780601f1061324957610100808354040283529160200191613274565b820191906000526020600020905b81548152906001019060200180831161325757829003601f168201915b50505050508080519060200120600260003373ffffffffffffffffffffffffffffffffffffffff1673ffffffffffffffffffffffffffffffffffffffff168152602001908152602001600020600201604051808280546001816001161561010002031660029004801561331e5780601f106132fc57610100808354040283529182019161331e565b820191906000526020600020905b81548152906001019060200180831161330a575b50509150506040518091039020148061339b575060048081111561333e57fe5b600260003373ffffffffffffffffffffffffffffffffffffffff1673ffffffffffffffffffffffffffffffffffffffff16815260200190815260200160002060030160019054906101000a900460ff16600481111561339957fe5b145b61340d576040517f08c379a00000000000000000000000000000000000000000000000000000000081526004018080602001828103825260118152602001807f4e6f742053616d6520446973747269637400000000000000000000000000000081525060200191505060405180910390fd5b6001600381111561341a57fe5b600260008473ffffffffffffffffffffffffffffffffffffffff1673ffffffffffffffffffffffffffffffffffffffff16815260200190815260200160002060030160009054906101000a900460ff16600381111561347557fe5b146134e8576040517f08c379a000000000000000000000000000000000000000000000000000000000815260040180806020018281038252601a8152602001807f566572696669636174696f6e204e6f742052657175657374656400000000000081525060200191505060405180910390fd5b6000151560036000600260008673ffffffffffffffffffffffffffffffffffffffff1673ffffffffffffffffffffffffffffffffffffffff16815260200190815260200160002060000154815260200190815260200160002060009054906101000a900460ff1615151461355b57600080fd5b60028060008473ffffffffffffffffffffffffffffffffffffffff1673ffffffffffffffffffffffffffffffffffffffff16815260200190815260200160002060030160006101000a81548160ff021916908360038111156135b957fe5b0217905550600160036000600260008673ffffffffffffffffffffffffffffffffffffffff1673ffffffffffffffffffffffffffffffffffffffff16815260200190815260200160002060000154815260200190815260200160002060006101000a81548160ff0219169083151502179055505050565b60056020528060005260406000206000915054906101000a900473ffffffffffffffffffffffffffffffffffffffff1681565b6002602052806000526040600020600091509050806000015490806001018054600181600116156101000203166002900480601f0160208091040260200160405190810160405280929190818152602001828054600181600116156101000203166002900480156137155780601f106136ea57610100808354040283529160200191613715565b820191906000526020600020905b8154815290600101906020018083116136f857829003601f168201915b505050505090806002018054600181600116156101000203166002900480601f0160208091040260200160405190810160405280929190818152602001828054600181600116156101000203166002900480156137b35780601f10613788576101008083540402835291602001916137b3565b820191906000526020600020905b81548152906001019060200180831161379657829003601f168201915b5050505050908060030160009054906101000a900460ff16908060030160019054906101000a900460ff16908060040154905086565b6000600360048111156137f857fe5b600260003373ffffffffffffffffffffffffffffffffffffffff1673ffffffffffffffffffffffffffffffffffffffff16815260200190815260200160002060030160019054906101000a900460ff16600481111561385357fe5b14806138c3575060048081111561386657fe5b600260003373ffffffffffffffffffffffffffffffffffffffff1673ffffffffffffffffffffffffffffffffffffffff16815260200190815260200160002060030160019054906101000a900460ff1660048111156138c157fe5b145b613935576040517f08c379a00000000000000000000000000000000000000000000000000000000081526004018080602001828103825260098152602001807f4e6f742041646d696e000000000000000000000000000000000000000000000081525060200191505060405180910390fd5b600460008381526020019081526020016000206003018054600181600116156101000203166002900480601f0160208091040260200160405190810160405280929190818152602001828054600181600116156101000203166002900480156139df5780601f106139b4576101008083540402835291602001916139df565b820191906000526020600020905b8154815290600101906020018083116139c257829003601f168201915b50505050508080519060200120600260003373ffffffffffffffffffffffffffffffffffffffff1673ffffffffffffffffffffffffffffffffffffffff1681526020019081526020016000206002016040518082805460018160011615610100020316600290048015613a895780601f10613a67576101008083540402835291820191613a89565b820191906000526020600020905b815481529060010190602001808311613a75575b505091505060405180910390201480613b065750600480811115613aa957fe5b600260003373ffffffffffffffffffffffffffffffffffffffff1673ffffffffffffffffffffffffffffffffffffffff16815260200190815260200160002060030160019054906101000a900460ff166004811115613b0457fe5b145b613b78576040517f08c379a00000000000000000000000000000000000000000000000000000000081526004018080602001828103825260118152602001807f4e6f742053616d6520446973747269637400000000000000000000000000000081525060200191505060405180910390fd5b600015156004600085815260200190815260200160002060060160009054906101000a900460ff16151514613c15576040517f08c379a00000000000000000000000000000000000000000000000000000000081526004018080602001828103825260158152602001807f50726f7065727479204e6f7420466f722053616c65000000000000000000000081525060200191505060405180910390fd5b600073ffffffffffffffffffffffffffffffffffffffff166005600085815260200190815260200160002060009054906101000a900473ffffffffffffffffffffffffffffffffffffffff1673ffffffffffffffffffffffffffffffffffffffff161415613cce576040517f08c379a000000000000000000000000000000000000000000000000000000000815260040180806020018281038252602981526020018061598b6029913960400191505060405180910390fd5b60006005600085815260200190815260200160002060009054906101000a900473ffffffffffffffffffffffffffffffffffffffff169050613d1081856155f5565b50613d1a846156b8565b506005600085815260200190815260200160002060009054906101000a900473ffffffffffffffffffffffffffffffffffffffff166004600086815260200190815260200160002060010160006101000a81548173ffffffffffffffffffffffffffffffffffffffff021916908373ffffffffffffffffffffffffffffffffffffffff16021790555060006005600086815260200190815260200160002060006101000a81548173ffffffffffffffffffffffffffffffffffffffff021916908373ffffffffffffffffffffffffffffffffffffffff160217905550600192505050919050565b6000823373ffffffffffffffffffffffffffffffffffffffff166004600083815260200190815260200160002060010160009054906101000a900473ffffffffffffffffffffffffffffffffffffffff1673ffffffffffffffffffffffffffffffffffffffff1614613edb576040517f08c379a00000000000000000000000000000000000000000000000000000000081526004018080602001828103825260098152602001807f4e6f74204f776e6572000000000000000000000000000000000000000000000081525060200191505060405180910390fd5b600015156004600086815260200190815260200160002060060160009054906101000a900460ff16151514613f78576040517f08c379a00000000000000000000000000000000000000000000000000000000081526004018080602001828103825260118152602001807f50726f706572747920466f722053616c6500000000000000000000000000000081525060200191505060405180910390fd5b600073ffffffffffffffffffffffffffffffffffffffff166005600086815260200190815260200160002060009054906101000a900473ffffffffffffffffffffffffffffffffffffffff1673ffffffffffffffffffffffffffffffffffffffff1614614030576040517f08c379a00000000000000000000000000000000000000000000000000000000081526004018080602001828103825260258152602001806159b46025913960400191505060405180910390fd5b826004600086815260200190815260200160002060020181905550600191505092915050565b60006003600481111561406557fe5b600260003373ffffffffffffffffffffffffffffffffffffffff1673ffffffffffffffffffffffffffffffffffffffff16815260200190815260200160002060030160019054906101000a900460ff1660048111156140c057fe5b148061413057506004808111156140d357fe5b600260003373ffffffffffffffffffffffffffffffffffffffff1673ffffffffffffffffffffffffffffffffffffffff16815260200190815260200160002060030160019054906101000a900460ff16600481111561412e57fe5b145b6141a2576040517f08c379a00000000000000000000000000000000000000000000000000000000081526004018080602001828103825260098152602001807f4e6f742041646d696e000000000000000000000000000000000000000000000081525060200191505060405180910390fd5b818080519060200120600260003373ffffffffffffffffffffffffffffffffffffffff1673ffffffffffffffffffffffffffffffffffffffff16815260200190815260200160002060020160405180828054600181600116156101000203166002900480156142485780601f10614226576101008083540402835291820191614248565b820191906000526020600020905b815481529060010190602001808311614234575b5050915050604051809103902014806142c5575060048081111561426857fe5b600260003373ffffffffffffffffffffffffffffffffffffffff1673ffffffffffffffffffffffffffffffffffffffff16815260200190815260200160002060030160019054906101000a900460ff1660048111156142c357fe5b145b614337576040517f08c379a00000000000000000000000000000000000000000000000000000000081526004018080602001828103825260118152602001807f4e6f742053616d6520446973747269637400000000000000000000000000000081525060200191505060405180910390fd5b6000600481111561434457fe5b600260008873ffffffffffffffffffffffffffffffffffffffff1673ffffffffffffffffffffffffffffffffffffffff16815260200190815260200160002060030160019054906101000a900460ff16600481111561439f57fe5b14614412576040517f08c379a000000000000000000000000000000000000000000000000000000000815260040180806020018281038252600a8152602001807f557365722045786973740000000000000000000000000000000000000000000081525060200191505060405180910390fd5b60606040518060e001604052808781526020018681526020018581526020016002600381111561443e57fe5b81526020016003600481111561445057fe5b81526020016000815260200182815250600260008973ffffffffffffffffffffffffffffffffffffffff1673ffffffffffffffffffffffffffffffffffffffff1681526020019081526020016000206000820151816000015560208201518160010190805190602001906144c59291906158a0565b5060408201518160020190805190602001906144e29291906158a0565b5060608201518160030160006101000a81548160ff0219169083600381111561450757fe5b021790555060808201518160030160016101000a81548160ff0219169083600481111561453057fe5b021790555060a0820151816004015560c082015181600501908051906020019061455b929190615920565b50905050600192505050949350505050565b60006002600481111561457c57fe5b600260003373ffffffffffffffffffffffffffffffffffffffff1673ffffffffffffffffffffffffffffffffffffffff16815260200190815260200160002060030160019054906101000a900460ff1660048111156145d757fe5b1461464a576040517f08c379a000000000000000000000000000000000000000000000000000000000815260040180806020018281038252600f8152602001807f4e6f74206120526567697374726172000000000000000000000000000000000081525060200191505060405180910390fd5b838080519060200120600260003373ffffffffffffffffffffffffffffffffffffffff1673ffffffffffffffffffffffffffffffffffffffff16815260200190815260200160002060020160405180828054600181600116156101000203166002900480156146f05780601f106146ce5761010080835404028352918201916146f0565b820191906000526020600020905b8154815290600101906020018083116146dc575b50509150506040518091039020148061476d575060048081111561471057fe5b600260003373ffffffffffffffffffffffffffffffffffffffff1673ffffffffffffffffffffffffffffffffffffffff16815260200190815260200160002060030160019054906101000a900460ff16600481111561476b57fe5b145b6147df576040517f08c379a00000000000000000000000000000000000000000000000000000000081526004018080602001828103825260118152602001807f4e6f742053616d6520446973747269637400000000000000000000000000000081525060200191505060405180910390fd5b600260038111156147ec57fe5b600260008973ffffffffffffffffffffffffffffffffffffffff1673ffffffffffffffffffffffffffffffffffffffff16815260200190815260200160002060030160009054906101000a900460ff16600381111561484757fe5b1461485157600080fd5b60405180610100016040528060015481526020018873ffffffffffffffffffffffffffffffffffffffff168152602001878152602001868152602001858152602001848152602001600015158152602001600160038111156148af57fe5b8152506004600060015481526020019081526020016000206000820151816000015560208201518160010160006101000a81548173ffffffffffffffffffffffffffffffffffffffff021916908373ffffffffffffffffffffffffffffffffffffffff16021790555060408201518160020155606082015181600301908051906020019061493e9291906158a0565b50608082015181600401908051906020019061495b9291906158a0565b5060a08201518160050190805190602001906149789291906158a0565b5060c08201518160060160006101000a81548160ff02191690831515021790555060e08201518160060160016101000a81548160ff021916908360038111156149bd57fe5b02179055509050506149d1876001546155f5565b50600160008154809291906001019190505550600191505095945050505050565b6000600115156004600084815260200190815260200160002060060160009054906101000a900460ff16151514614a91576040517f08c379a000000000000000000000000000000000000000000000000000000000815260040180806020018281038252601d8152602001807f50726f706572747920416c7265616479204e6f7420466f722053616c6500000081525060200191505060405180910390fd5b3373ffffffffffffffffffffffffffffffffffffffff166004600084815260200190815260200160002060010160009054906101000a900473ffffffffffffffffffffffffffffffffffffffff1673ffffffffffffffffffffffffffffffffffffffff1614614b4b576040517f08c379a0000000000000000000000000000000000000000000000000000000008152600401808060200182810382526028815260200180615a026028913960400191505060405180910390fd5b60006004600084815260200190815260200160002060060160006101000a81548160ff02191690831515021790555060019050919050565b6000806004811115614b9157fe5b600260008773ffffffffffffffffffffffffffffffffffffffff1673ffffffffffffffffffffffffffffffffffffffff16815260200190815260200160002060030160019054906101000a900460ff166004811115614bec57fe5b14614c5f576040517f08c379a000000000000000000000000000000000000000000000000000000000815260040180806020018281038252600a8152602001807f557365722045786973740000000000000000000000000000000000000000000081525060200191505060405180910390fd5b600015156003600086815260200190815260200160002060009054906101000a900460ff16151514614cf9576040517f08c379a00000000000000000000000000000000000000000000000000000000081526004018080602001828103825260178152602001807f434e4943205265676973746172656420416c726561647900000000000000000081525060200191505060405180910390fd5b60606040518060e0016040528086815260200185815260200184815260200160016003811115614d2557fe5b815260200160016004811115614d3757fe5b81526020016000815260200182815250600260008873ffffffffffffffffffffffffffffffffffffffff1673ffffffffffffffffffffffffffffffffffffffff168152602001908152602001600020600082015181600001556020820151816001019080519060200190614dac9291906158a0565b506040820151816002019080519060200190614dc99291906158a0565b5060608201518160030160006101000a81548160ff02191690836003811115614dee57fe5b021790555060808201518160030160016101000a81548160ff02191690836004811115614e1757fe5b021790555060a0820151816004015560c0820151816005019080519060200190614e42929190615920565b509050506001915050949350505050565b600060036004811115614e6257fe5b600260003373ffffffffffffffffffffffffffffffffffffffff1673ffffffffffffffffffffffffffffffffffffffff16815260200190815260200160002060030160019054906101000a900460ff166004811115614ebd57fe5b1480614f2d5750600480811115614ed057fe5b600260003373ffffffffffffffffffffffffffffffffffffffff1673ffffffffffffffffffffffffffffffffffffffff16815260200190815260200160002060030160019054906101000a900460ff166004811115614f2b57fe5b145b614f9f576040517f08c379a00000000000000000000000000000000000000000000000000000000081526004018080602001828103825260098152602001807f4e6f742041646d696e000000000000000000000000000000000000000000000081525060200191505060405180910390fd5b600460008381526020019081526020016000206003018054600181600116156101000203166002900480601f0160208091040260200160405190810160405280929190818152602001828054600181600116156101000203166002900480156150495780601f1061501e57610100808354040283529160200191615049565b820191906000526020600020905b81548152906001019060200180831161502c57829003601f168201915b50505050508080519060200120600260003373ffffffffffffffffffffffffffffffffffffffff1673ffffffffffffffffffffffffffffffffffffffff16815260200190815260200160002060020160405180828054600181600116156101000203166002900480156150f35780601f106150d15761010080835404028352918201916150f3565b820191906000526020600020905b8154815290600101906020018083116150df575b505091505060405180910390201480615170575060048081111561511357fe5b600260003373ffffffffffffffffffffffffffffffffffffffff1673ffffffffffffffffffffffffffffffffffffffff16815260200190815260200160002060030160019054906101000a900460ff16600481111561516e57fe5b145b6151e2576040517f08c379a00000000000000000000000000000000000000000000000000000000081526004018080602001828103825260118152602001807f4e6f742053616d6520446973747269637400000000000000000000000000000081525060200191505060405180910390fd5b600160038111156151ef57fe5b6004600085815260200190815260200160002060060160019054906101000a900460ff16600381111561521e57fe5b14615291576040517f08c379a000000000000000000000000000000000000000000000000000000000815260040180806020018281038252601a8152602001807f566572696669636174696f6e204e6f742052657175657374656400000000000081525060200191505060405180910390fd5b3373ffffffffffffffffffffffffffffffffffffffff166004600085815260200190815260200160002060010160009054906101000a900473ffffffffffffffffffffffffffffffffffffffff1673ffffffffffffffffffffffffffffffffffffffff161415615369576040517f08c379a00000000000000000000000000000000000000000000000000000000081526004018080602001828103825260148152602001807f4f776e65722043616e6e6f7420417070726f766500000000000000000000000081525060200191505060405180910390fd5b60026004600085815260200190815260200160002060060160016101000a81548160ff0219169083600381111561539c57fe5b02179055506001915050919050565b60046020528060005260406000206000915090508060000154908060010160009054906101000a900473ffffffffffffffffffffffffffffffffffffffff1690806002015490806003018054600181600116156101000203166002900480601f0160208091040260200160405190810160405280929190818152602001828054600181600116156101000203166002900480156154895780601f1061545e57610100808354040283529160200191615489565b820191906000526020600020905b81548152906001019060200180831161546c57829003601f168201915b505050505090806004018054600181600116156101000203166002900480601f0160208091040260200160405190810160405280929190818152602001828054600181600116156101000203166002900480156155275780601f106154fc57610100808354040283529160200191615527565b820191906000526020600020905b81548152906001019060200180831161550a57829003601f168201915b505050505090806005018054600181600116156101000203166002900480601f0160208091040260200160405190810160405280929190818152602001828054600181600116156101000203166002900480156155c55780601f1061559a576101008083540402835291602001916155c5565b820191906000526020600020905b8154815290600101906020018083116155a857829003601f168201915b5050505050908060060160009054906101000a900460ff16908060060160019054906101000a900460ff16905088565b6000600660008473ffffffffffffffffffffffffffffffffffffffff1673ffffffffffffffffffffffffffffffffffffffff1681526020019081526020016000208290806001815401808255809150506001900390600052602060002001600090919091909150556001600260008573ffffffffffffffffffffffffffffffffffffffff1673ffffffffffffffffffffffffffffffffffffffff168152602001908152602001600020600401600082825401925050819055506001905092915050565b6000806004600084815260200190815260200160002060010160009054906101000a900473ffffffffffffffffffffffffffffffffffffffff1690506060600260008373ffffffffffffffffffffffffffffffffffffffff1673ffffffffffffffffffffffffffffffffffffffff16815260200190815260200160002060050180548060200260200160405190810160405280929190818152602001828054801561578257602002820191906000526020600020905b81548152602001906001019080831161576e575b5050505050905060005b8151811015615893578185815181106157a157fe5b60200260200101518282815181106157b557fe5b6020026020010151141561588657600660008473ffffffffffffffffffffffffffffffffffffffff1673ffffffffffffffffffffffffffffffffffffffff1681526020019081526020016000208190806001815401808255809150506001900390600052602060002001600090919091909150556001600260008573ffffffffffffffffffffffffffffffffffffffff1673ffffffffffffffffffffffffffffffffffffffff168152602001908152602001600020600401600082825403925050819055506001935050505061589b565b808060010191505061578c565b600093505050505b919050565b828054600181600116156101000203166002900490600052602060002090601f016020900481019282601f106158e157805160ff191683800117855561590f565b8280016001018555821561590f579182015b8281111561590e5782518255916020019190600101906158f3565b5b50905061591c919061596d565b5090565b82805482825590600052602060002090810192821561595c579160200282015b8281111561595b578251825591602001919060010190615940565b5b509050615969919061596d565b5090565b5b8082111561598657600081600090555060010161596e565b509056fe50726f7065727479204f776e6572204368616e67652052657175657374204e6f742050656e64696e6750726f7065727479204f776e6572204368616e676520526571756573742050656e64696e674f776e65722043616e206e6f7420427579204869732f486572204f776e20417373657420416761696e4f6e6c79204f776e65722043616e2052656d6f76652050726f70657274792046726f6d2053616c65a2646970667358221220bd9970a453b162450fe0461cc3f51e8cb999841d66c8be46276a1199696bd78564736f6c63430007010033",
  "immutableReferences": {},
  "source": "// SPDX-License-Identifier: MIT\r\npragma solidity >=0.4.22 <0.9.0;\r\n\r\ncontract LandRegistrationContract {\r\n    address creator;\r\n    uint256 totalProperties;\r\n\r\n    // (Address => User)\r\n    mapping(address => User) public users;\r\n\r\n    // (CNIC || id => Status) Users\r\n    mapping(uint256 => bool) public verifiedUsers;\r\n\r\n    // (PropertyID => PropertyDetails)\r\n    mapping(uint256 => Property) public properties;\r\n\r\n    // (PropertyID => NewOwner)\r\n    mapping(uint256 => address) public propOwnerChange;\r\n\r\n    // (address => Assets)\r\n    mapping(address => uint256[]) public assets;\r\n\r\n    enum UserVerfication {\r\n        NotExist,\r\n        Pending,\r\n        Approved,\r\n        Rejected\r\n    }\r\n    enum PropertyVerfication {\r\n        NotExist,\r\n        Pending,\r\n        Approved,\r\n        Rejected\r\n    }\r\n    enum UserType {\r\n        NotExist,\r\n        User,\r\n        Registrar,\r\n        Admin,\r\n        Creator\r\n    }\r\n\r\n    struct User {\r\n        uint256 id;\r\n        string name;\r\n        string district;\r\n        UserVerfication verification;\r\n        UserType userType;\r\n        uint256 totalAssests;\r\n        uint256[] assets;\r\n    }\r\n\r\n    struct Property {\r\n        uint256 id;\r\n        address currentOwner;\r\n        uint256 price;\r\n        string district;\r\n        string latitude;\r\n        string longitude;\r\n        bool forSale;\r\n        PropertyVerfication verification;\r\n    }\r\n\r\n    modifier onlyOwner(uint256 _propId) {\r\n        require(properties[_propId].currentOwner == msg.sender, \"Not Owner\");\r\n        _;\r\n    }\r\n\r\n    modifier OnlyVerifiedUsers() {\r\n        require(\r\n            verifiedUsers[users[msg.sender].id] == true,\r\n            \"Not a verified User\"\r\n        );\r\n        require(\r\n            users[msg.sender].verification == UserVerfication.Approved,\r\n            \"Not Verified User\"\r\n        );\r\n        _;\r\n    }\r\n\r\n    modifier OnlyVerifiedProperty(uint256 _id) {\r\n        require(\r\n            properties[_id].verification == PropertyVerfication.Approved,\r\n            \"Not a verified Property\"\r\n        );\r\n        _;\r\n    }\r\n\r\n    modifier OnlyRegistrar() {\r\n        require(\r\n            users[msg.sender].userType == UserType.Registrar,\r\n            \"Not a Registrar\"\r\n        );\r\n        _;\r\n    }\r\n\r\n    modifier OnlyAdmin() {\r\n        require(\r\n            users[msg.sender].userType == UserType.Admin ||\r\n                users[msg.sender].userType == UserType.Creator,\r\n            \"Not Admin\"\r\n        );\r\n        _;\r\n    }\r\n\r\n    modifier sameDistrict(string memory _district) {\r\n        require(\r\n            keccak256(bytes(users[msg.sender].district)) ==\r\n                keccak256(bytes(_district)) ||\r\n                users[msg.sender].userType == UserType.Creator,\r\n            \"Not Same District\"\r\n        );\r\n        _;\r\n    }\r\n\r\n    constructor(\r\n        uint256 _CNIC,\r\n        string memory _name,\r\n        string memory _district\r\n    ) {\r\n        creator = msg.sender;\r\n        User memory newUser;\r\n        newUser.id = _CNIC;\r\n        newUser.name = _name;\r\n        newUser.district = _district;\r\n        newUser.verification = UserVerfication.Approved;\r\n        newUser.userType = UserType.Creator;\r\n        newUser.totalAssests = 0;\r\n\r\n        users[creator] = newUser;\r\n    }\r\n\r\n    // Add New User.\r\n    function addNewUser(\r\n        address _newUser,\r\n        uint256 _CNIC,\r\n        string memory _name,\r\n        string memory _district\r\n    ) external returns (bool Successful) {\r\n        require(users[_newUser].userType == UserType.NotExist, \"User Exist\");\r\n        require(verifiedUsers[_CNIC] == false, \"CNIC Registared Already\");\r\n        uint256[] memory asset;\r\n        users[_newUser] = User(\r\n            _CNIC,\r\n            _name,\r\n            _district,\r\n            UserVerfication.Pending,\r\n            UserType.User,\r\n            0,\r\n            asset\r\n        );\r\n        return true;\r\n    }\r\n\r\n    // Add New Registrar.\r\n    function addNewRegistrar(\r\n        address _newUser,\r\n        uint256 _CNIC,\r\n        string memory _name,\r\n        string memory _district\r\n    ) external OnlyAdmin() sameDistrict(_district) returns (bool Successful) {\r\n        require(users[_newUser].userType == UserType.NotExist, \"User Exist\");\r\n        uint256[] memory asset;\r\n        users[_newUser] = User(\r\n            _CNIC,\r\n            _name,\r\n            _district,\r\n            UserVerfication.Approved,\r\n            UserType.Registrar,\r\n            0,\r\n            asset\r\n        );\r\n        return true;\r\n    }\r\n\r\n    // Add New Admin.\r\n    function addNewAdmin(\r\n        address _newUser,\r\n        uint256 _CNIC,\r\n        string memory _name,\r\n        string memory _district\r\n    ) external OnlyAdmin() sameDistrict(_district) returns (bool Successful) {\r\n        require(users[_newUser].userType == UserType.NotExist, \"User Exist\");\r\n        uint256[] memory asset;\r\n        users[_newUser] = User(\r\n            _CNIC,\r\n            _name,\r\n            _district,\r\n            UserVerfication.Approved,\r\n            UserType.Admin,\r\n            0,\r\n            asset\r\n        );\r\n        return true;\r\n    }\r\n\r\n    // Approve New User.\r\n    function approveUserAccept(address _verifiedUser)\r\n        external\r\n        OnlyRegistrar()\r\n        sameDistrict(users[_verifiedUser].district)\r\n    {\r\n        require(\r\n            users[_verifiedUser].verification == UserVerfication.Pending,\r\n            \"Verification Not Requested\"\r\n        );\r\n        require(verifiedUsers[users[_verifiedUser].id] == false);\r\n        users[_verifiedUser].verification = UserVerfication.Approved;\r\n        verifiedUsers[users[_verifiedUser].id] = true;\r\n    }\r\n\r\n    // Reject New User.\r\n    function approveUserReject(address _rejectedUser)\r\n        external\r\n        OnlyRegistrar()\r\n        sameDistrict(users[_rejectedUser].district)\r\n    {\r\n        require(\r\n            users[_rejectedUser].verification == UserVerfication.Pending,\r\n            \"Verification Not Requested\"\r\n        );\r\n        require(verifiedUsers[users[_rejectedUser].id] == false);\r\n        uint256[] memory asset;\r\n        users[_rejectedUser] = User(\r\n            0,\r\n            \"\",\r\n            \"\",\r\n            UserVerfication.NotExist,\r\n            UserType.NotExist,\r\n            0,\r\n            asset\r\n        );\r\n        verifiedUsers[users[_rejectedUser].id] = false;\r\n    }\r\n\r\n    // Create a new Property.\r\n    function createProperty(\r\n        address payable _owner,\r\n        uint256 _price,\r\n        string memory _district,\r\n        string memory _latitude,\r\n        string memory _longitude\r\n    )\r\n        external\r\n        OnlyRegistrar()\r\n        sameDistrict(_district)\r\n        returns (bool Successful)\r\n    {\r\n        require(users[_owner].verification == UserVerfication.Approved);\r\n        properties[totalProperties] = Property(\r\n            totalProperties,\r\n            _owner,\r\n            _price,\r\n            _district,\r\n            _latitude,\r\n            _longitude,\r\n            false,\r\n            PropertyVerfication.Pending\r\n        );\r\n        addAsset(_owner, totalProperties);\r\n        totalProperties++;\r\n        return true;\r\n    }\r\n\r\n    // Approve new Property.\r\n    function approveProperty(uint256 _propId)\r\n        external\r\n        OnlyAdmin()\r\n        sameDistrict(properties[_propId].district)\r\n        returns (bool Successful)\r\n    {\r\n        require(\r\n            properties[_propId].verification == PropertyVerfication.Pending,\r\n            \"Verification Not Requested\"\r\n        );\r\n        require(\r\n            properties[_propId].currentOwner != msg.sender,\r\n            \"Owner Cannot Approve\"\r\n        );\r\n        properties[_propId].verification = PropertyVerfication.Approved;\r\n        return true;\r\n    }\r\n\r\n    // Reject new Property.\r\n    function rejectProperty(uint256 _propId)\r\n        external\r\n        OnlyAdmin\r\n        sameDistrict(properties[_propId].district)\r\n        returns (bool Successful)\r\n    {\r\n        require(\r\n            properties[_propId].verification == PropertyVerfication.Pending,\r\n            \"Verification Not Requested\"\r\n        );\r\n        require(\r\n            properties[_propId].currentOwner != msg.sender,\r\n            \"Owner Cannot Reject\"\r\n        );\r\n        properties[totalProperties] = Property(\r\n            0,\r\n            0x0000000000000000000000000000000000000000,\r\n            0,\r\n            \"0\",\r\n            \"0\",\r\n            \"0\",\r\n            false,\r\n            PropertyVerfication.NotExist\r\n        );\r\n        return true;\r\n    }\r\n\r\n    // Change the price of the property.\r\n    function changePrice(uint256 _propId, uint256 _newValue)\r\n        external\r\n        onlyOwner(_propId)\r\n        returns (bool Successful)\r\n    {\r\n        require(properties[_propId].forSale == false, \"Property For Sale\");\r\n        require(\r\n            propOwnerChange[_propId] == address(0),\r\n            \"Property Owner Change Request Pending\"\r\n        );\r\n        properties[_propId].price = _newValue;\r\n        return true;\r\n    }\r\n\r\n    // For Sale\r\n    function sellProperty(uint256 _propId)\r\n        external\r\n        OnlyVerifiedUsers()\r\n        OnlyVerifiedProperty(_propId)\r\n        returns (bool Successful)\r\n    {\r\n        require(\r\n            properties[_propId].forSale == false,\r\n            \"Property Already For Sale\"\r\n        );\r\n        require(\r\n            properties[_propId].currentOwner == msg.sender,\r\n            \"Only Owner Can Sell\"\r\n        );\r\n        properties[_propId].forSale = true;\r\n        return true;\r\n    }\r\n\r\n    // Not For Sale\r\n    function NotForSale(uint256 _propId) external returns (bool Successful) {\r\n        require(\r\n            properties[_propId].forSale == true,\r\n            \"Property Already Not For Sale\"\r\n        );\r\n        require(\r\n            properties[_propId].currentOwner == msg.sender,\r\n            \"Only Owner Can Remove Property From Sale\"\r\n        );\r\n        properties[_propId].forSale = false;\r\n        return true;\r\n    }\r\n\r\n    // Request Purchase.\r\n    function requestPurchase(uint256 _propId, address payable _newOwner)\r\n        external\r\n        OnlyVerifiedUsers()\r\n        returns (bool Successful)\r\n    {\r\n        require(properties[_propId].forSale == true, \"Property Not For Sale\");\r\n        require(\r\n            properties[_propId].currentOwner != _newOwner,\r\n            \"Owner Can not Buy His/Her Own Asset Again\"\r\n        );\r\n        require(\r\n            propOwnerChange[_propId] == address(0),\r\n            \"Property Owner Change Request Pending\"\r\n        );\r\n        propOwnerChange[_propId] = _newOwner;\r\n        properties[_propId].forSale = false;\r\n        return true;\r\n    }\r\n\r\n    // Approve change in Onwership.\r\n    function approvePurchase(uint256 _propId)\r\n        external\r\n        OnlyAdmin()\r\n        sameDistrict(properties[_propId].district)\r\n        returns (bool Successful)\r\n    {\r\n        require(properties[_propId].forSale == false, \"Property Not For Sale\");\r\n        require(\r\n            propOwnerChange[_propId] != address(0),\r\n            \"Property Owner Change Request Not Pending\"\r\n        );\r\n        address newPropertyOwner = propOwnerChange[_propId];\r\n        addAsset(newPropertyOwner, _propId);\r\n        removeAsset(_propId);\r\n        properties[_propId].currentOwner = propOwnerChange[_propId];\r\n        propOwnerChange[_propId] = address(0);\r\n        return true;\r\n    }\r\n\r\n    // Reject change in Onwership.\r\n    function rejectPurchase(uint256 _propId)\r\n        external\r\n        OnlyAdmin()\r\n        sameDistrict(properties[_propId].district)\r\n        returns (bool Successful)\r\n    {\r\n        require(properties[_propId].forSale == false, \"Property Not For Sale\");\r\n        require(\r\n            propOwnerChange[_propId] != address(0),\r\n            \"Property Rejected Already\"\r\n        );\r\n        propOwnerChange[_propId] = address(0);\r\n        return true;\r\n    }\r\n\r\n    // Add Assets\r\n    function addAsset(address _newOwner, uint256 _addAsset)\r\n        internal\r\n        returns (bool Successful)\r\n    {\r\n        assets[_newOwner].push(_addAsset);\r\n        users[_newOwner].totalAssests += 1;\r\n        return true;\r\n    }\r\n\r\n    // Remove Assets\r\n    function removeAsset(uint256 _removeAsset)\r\n        internal\r\n        returns (bool Successful)\r\n    {\r\n        address propertyOwner = properties[_removeAsset].currentOwner;\r\n        uint256[] memory asset = users[propertyOwner].assets;\r\n        uint256 i;\r\n        for (i = 0; i < asset.length; i++) {\r\n            if (asset[i] == asset[_removeAsset]) {\r\n                assets[propertyOwner].push(i);\r\n                users[propertyOwner].totalAssests -= 1;\r\n                return true;\r\n            }\r\n        }\r\n        return false;\r\n    }\r\n\r\n    receive() external payable {}\r\n}\r\n",
  "sourcePath": "/home/daniyalc/Desktop/final year project/updated project 3/land-registration-system/contracts/LandRegistrationContract.sol",
  "compiler": {
    "name": "solc",
    "version": "0.7.1+commit.f4a555be.Emscripten.clang"
  },
  "schemaVersion": "3.4.1",
  "updatedAt": "2021-08-03T12:58:29.558Z",
  "networkType": "ethereum",
  "devdoc": {
    "kind": "dev",
    "methods": {},
    "version": 1
  },
  "userdoc": {
    "kind": "user",
    "methods": {},
    "version": 1
  }
}